:020000040800F2
:10000000C8100020910100083B1E0008E51B0008F5
:10001000391E0008170600086923000800000000C8
:100020000000000000000000000000003F1E00086B
:1000300073060008000000003D1E0008411E000875
:10004000AB010008AB010008AB010008AB010008E0
:10005000AB010008AB010008AB010008AB010008D0
:10006000AB010008AB010008AB010008AB010008C0
:100070001906000825060008310600083D0600089C
:10008000AB010008AB010008AB010008AB010008A0
:10009000AB010008AB010008AB010008AB01000890
:1000A000AB010008AB010008AB010008AB01000880
:1000B000A51E0008AB010008AB010008AB01000859
:1000C000AB010008AB010008AB010008AB01000860
:1000D000AB01000851230008AB0100085D230008B4
:1000E000AB010008AB010008AB01000800F002F80A
:1000F00000F03FF80AA090E8000C82448344AAF183
:100100000107DA4501D100F034F8AFF2090EBAE880
:100110000F0013F0010F18BFFB1A43F0010318473B
:1001200084320000A4320000103A24BF78C878C19D
:10013000FAD8520724BF30C830C144BF04680C60ED
:10014000704700000023002400250026103A28BF35
:1001500078C1FBD8520728BF30C148BF0B60704739
:10016000642900F07D80002070471FB51FBD10B5C9
:1001700010BD00F016FA1146FFF7F7FF02F0E0F9A4
:1001800000F034FA03B4FFF7F2FF03BC00F03CFACE
:100190000948804709480047FEE7FEE7FEE7FEE71B
:1001A000FEE7FEE7FEE7FEE7FEE7FEE70448054957
:1001B000054A064B70470000A11E0008ED0000082C
:1001C000C80A0020C8100020C80C0020C80C00205D
:1001D0000FB41CB5074B06AA7B44694600900598EE
:1001E00000F0C7F90020694600F0D6F91CBC5DF8A4
:1001F00014FB0000BD0300002DE9F0410E4604464B
:10020000002020622046E168884730B3252805D0C9
:10021000D4E901219047206A401CF2E7E1682046BA
:1002200000278847050018D0A5F14100192802D8F9
:1002300020354FF400673246294620462760FFF7F5
:100240008FFF40B1012804D0F61D26F007060836BE
:10025000D8E7361DD6E72846DAE7206ABDE8F08100
:100260002DE9F0410646002410687529314616A58F
:1002700010D0AFF30080002802DA404213A507E057
:1002800031688A0701D512A502E0490704D511A5F6
:10029000012401E0AFF3008000210A2206F12407C7
:1002A00009E0B0FBF2FCB0FBF2F302FB1C003030C3
:1002B00078541846491C0028F3D123462A46304674
:1002C000BDE8F04100F0F7B8000000002D0000008C
:1002D0002B0000002000000040EA010310B59B073E
:1002E0000FD1042A0DD310C808C9121F9C42F8D0A0
:1002F00020BA19BA884201D9012010BD4FF0FF3051
:1003000010BD1AB1D30703D0521C07E0002010BD66
:1003100010F8013B11F8014B1B1B07D110F8013BF2
:1003200011F8014B1B1B01D1921EF1D1184610BDD3
:10033000032A40F2308010F0030C00F0158011F811
:10034000013BBCF1020F624498BF11F801CB00F8E9
:10035000013B38BF11F8013BA2F1040298BF00F83D
:1003600001CB38BF00F8013B11F0030300F02580FA
:10037000083AC0F0088051F8043B083A51F804CB21
:10038000A0E80810F5E7121D5CBF51F8043B40F8E7
:10039000043BAFF30080D20724BF11F8013B11F8F2
:1003A00001CB48BF11F8012B24BF00F8013B00F836
:1003B00001CB48BF00F8012B704710B5203AC0F0C0
:1003C0000B80B1E81850203AA0E81850B1E8185056
:1003D000A0E81850BFF4F5AF5FEA027C24BFB1E893
:1003E0001850A0E8185044BF18C918C0BDE8104004
:1003F0005FEA827C24BF51F8043B40F8043B08BF0D
:100400007047D20728BF31F8023B48BF11F8012BD3
:1004100028BF20F8023B48BF00F8012B70474FF07F
:1004200000020429C0F0128010F0030C00F01B80C1
:10043000CCF1040CBCF1020F18BF00F8012BA8BFCF
:1004400020F8022BA1EB0C0100F00DB85FEAC17C93
:1004500024BF00F8012B00F8012B48BF00F8012B46
:1004600070474FF0000200B5134694469646203977
:1004700022BFA0E80C50A0E80C50B1F12001BFF45D
:10048000F7AF090728BFA0E80C5048BF0CC05DF8C3
:1004900004EB890028BF40F8042B08BF704748BF11
:1004A00020F8022B11F0804F18BF00F8012B704785
:1004B0007047704770472DE9F0470D4699469246C0
:1004C000044600F124080168880604D5E06921F09B
:1004D0001001216000E00120A84201DD471B00E07F
:1004E0000027A1697A1902EB0900081AA061207897
:1004F000C00602D42046AFF30080002608E0D4E90D
:1005000001211AF806009047206A401C761C2062E0
:100510004E45F4DB2078C0060AD52046AFF30080B4
:1005200006E0D4E9012130209047206A401C206277
:10053000381EA7F10107F4DC07E0D4E9012118F81F
:1005400005009047206A401C2062281EA5F1010585
:10055000F3DC2046AFF300802078000602D50220AD
:10056000BDE8F0870120FBE701694A1C02610878B9
:10057000704700B58FB0CDE90131002105910549E3
:100580007944CDE9031011466846FFF735FE0FB0F8
:1005900000BD0000E5FFFFFF0A6802F8010B0A60DA
:1005A0007047754600F02CF8AE4605006946534684
:1005B00020F00700854618B020B5FFF7F7FDBDE82D
:1005C00020404FF000064FF000074FF000084FF0BA
:1005D000000B21F00701AC46ACE8C009ACE8C0094B
:1005E000ACE8C009ACE8C0098D46704710B50446B8
:1005F000AFF300802046BDE81040FFF7C3BD000008
:1006000000487047680A002001491820ABBEFEE789
:10061000260002007047FEE7014800F09DB8000088
:1006200040020020014800F097B80000840200203A
:10063000014800F091B80000FC010020014800F0E2
:100640008BB80000B801002030B590F8405001246C
:10065000AC40C56B6C60046863604368102B036832
:1006600003D099600068C26030BD9A600068C160C4
:1006700030BD704772B6FEE710B590F82110002229
:10068000022905D00421816380F82020012010BDBB
:1006900001680B6823F00E030B6001680B6823F000
:1006A00001030B6090F84030C46B012101FA03F3A1
:1006B000636080F8211080F82020104610BD0000F3
:1006C00010B590F821100024022903D00421816381
:1006D00001243DE001680A6822F00E020A60016808
:1006E0000A6822F001020A601A4A0168914201D1A7
:1006F000012121E0174A1432914201D110211BE05F
:10070000144A2832914201D1891515E0114A3C3230
:10071000914201D189140FE00E4A5032914202D128
:100720004FF4803108E00B4A6432914202D14FF419
:10073000801101E04FF08071064A083A51600121B2
:1007400080F82110002180F82010416B01B188470A
:10075000204610BD080002402DE9F05FC16B0C6817
:1007600001680B68D0F840C0042202FA0CF2494D2F
:10077000DFF824A1494E4A4FDFF828B1DFF828E11D
:1007800022422CD05A072AD50A68920603D40A6856
:1007900022F004020A600168A94201D1042219E092
:1007A000514501D1402215E0B14202D14FF480629F
:1007B00010E0B94202D14FF480420BE0594502D11A
:1007C0004FF4802206E0714502D14FF4800201E02F
:1007D0004FF080622F4908394A60C16A3BE04FF010
:1007E000020808FA0CF818EA040F4FF000094FF05D
:1007F000010235D05FEA837832D50B689B0605D4B9
:100800000B6823F00A030B6080F821200168A942DD
:1008100001D1022219E0514501D1202215E0B14257
:1008200002D14FF4007210E0B94202D14FF40052ED
:100830000BE0594502D14FF4003206E0714502D178
:100840004FF4001201E04FF00072124908394A607B
:1008500080F82090816A00291AD0BDE8F05F08472F
:10086000082505FA0CF5254212D01B0710D50B6898
:1008700023F00E030B6090F84010C36B02FA01F1F5
:100880005960826380F8212080F82090016BE2E7B4
:10089000BDE8F09F080002401C000240300002400A
:1008A00044000240580002406C00024030B528B3BA
:1008B00008C8134914221944B1FBF2F18900C1633D
:1008C00010498163022141771A6843F6F0718A4327
:1008D000D0E900142143D0E902452C4321430469A7
:1008E0002143446921438469214311431960002154
:1008F0004163012242770177084630BD012030BDB7
:10090000F8FFFDBF0000024070B5044690F82000DB
:10091000002501280CD0012084F8200094F82160E3
:100920000020012E06D084F820000225284670BD44
:10093000022070BD022684F82160A063206806684A
:1009400026F0010606602046FFF77EFEE06A0028DA
:100950002068016802D041F00E0106E021F0040198
:1009600001602068016841F00A01016020680168A7
:1009700041F001010160D9E770B5044600F004F9C7
:100980000546601C02D004480078044400F0FCF8DE
:10099000401BA042FAD370BD000000202DE9F84FA3
:1009A000DFF8B8910024A9F1040B23460F2709F1C1
:1009B000040AABF1040EC9E00125A5402A40AA4271
:1009C0007DD1674ED1F804C0ACEB0608B44532D0F7
:1009D00014DCBCF1030F3AD009DCBCF1000F2AD0C3
:1009E000BCF1010F1CD0BCF1020F31D11DE0BCF1F4
:1009F000110F17D0BCF1120F2AD119E0B8F5881FDA
:100A000019D006DCB8F5803F15D0B8F5801F1FD18E
:100A100011E0B8F5001F0ED0B8F5041F18D10AE098
:100A2000CB6815E0CB681B1D12E0CB6808330FE0E4
:100A3000CB680C330CE08B682BB1012B4FF0080313
:100A400003D0456104E0042302E0056100E00023D7
:100A5000FF2A01D8064601E000F104064FEA8405AA
:100A600001D9A5F12005D6F8008007FA05FC28EA8F
:100A70000C0803FA05F548EA0508C6F800804D6839
:100A8000ED0062D5374DAE6946F00106AE61AD6945
:100A900024F0030605F001050095334D06EB050C27
:100AA000DCF80850A607360F07FA06F825EA08050D
:100AB000DFF8B880404503D14FF0000817E044E06C
:100AC000DFF8AC80404502D14FF001080FE0DFF8BD
:100AD000A480404502D14FF0020808E0DFF898807A
:100AE000404502D14FF0030801E04FF0040808FA36
:100AF00006F848EA0508CCF808804D68D9F8006087
:100B0000ED024D4601D5164300E096432E604D6838
:100B1000DAF80060AD02554601D5164300E0964371
:100B20002E604D68DBF80060AD035D4601D51643CD
:100B300000E096432E604D68DEF80060ED037546D8
:100B400001D5164300E096432E60641C0D682A46CA
:100B5000E5407FF431AFBDE8F88F000008040140A4
:100B60000000111000100240000001400008014088
:100B7000000C014000100140001401400AB1016165
:100B800070470904FBE700000148806870470000D7
:100B9000000000200248816802781144816070479B
:100BA00000000020074810B5016841F01001016005
:100BB000032000F075F80F2000F006F800F024F88C
:100BC000002010BD0020024070B50D4D04464FF4CA
:100BD0007A712878B1FBF0F00A490968B1FBF0F0AE
:100BE00000F06EFB48B9102C07D200222146501E9F
:100BF00000F036F800206C6070BD012070BD000070
:100C0000000000200C0000200C4808B5816941F06C
:100C100001018161816901F001010091C16941F027
:100C20008051C161C06900F0805000900448416863
:100C300021F0E06141F08061416008BD0010024098
:100C400000000140002809DB00F01F020121914053
:100C50004009800000F1E020C0F80011704700005A
:100C6000F0B40E4B1B680C46C3F30223C3F1070517
:100C7000042D00D90425191D072901D2002300E005
:100C8000DB1E012606FA05F1491E214099409E40CF
:100C9000761E16403143F0BC01F067BB0CED00E05E
:100CA000064900F0070208684FF6FF03184040EAC3
:100CB0000220034A10430860704700000CED00E07A
:100CC0000000FA052DE9F0470F46050061D0434EBC
:100CD000306800F00700B84209D2306820F0070001
:100CE00038433060306800F00700B84251D12868BE
:100CF0003B4C810712D5400703D5606840F4E060A3
:100D000060602878000703D5606840F46050606038
:100D10006068A96820F0F000084360602878C00788
:100D200028D06868012810D02168022810D08907CF
:100D300000292EDA616821F0030101436160FFF7A9
:100D400023FF804641F288390DE021688903EFE7EF
:100D50008901EDE7FFF718FFA0EB0801494502D92B
:100D60000320BDE8F0876068696800F00C00B0EB14
:100D7000810FEFD1306800F00700B8420BD930681E
:100D800020F0070038433060306800F00700B842B8
:100D900001D00120E5E72878400705D56068E968BB
:100DA00020F4E060084360602878000706D560689A
:100DB000296920F4605040EAC100606000F038F812
:100DC0006168084AC1F30311515CC84006490860D4
:100DD00006480068FFF7F8FE0020C2E70020024046
:100DE000001002407E3100080C00002004000020AA
:100DF0000448054900684968044AC1F30221515C6E
:100E0000C84070470C000020001002408E310008DE
:100E10000448054900684968044AC1F3C221515C8D
:100E2000C84070470C000020001002408E310008BE
:100E30000E4A51680E4801F00C03042B11D0082B08
:100E40000FD10C48C1F38343C903C05C0AD5516874
:100E5000084AC1F34041921E515C054A5043B0FB21
:100E6000F1F0704704494843704700000010024009
:100E700000127A006E31000800093D002DE9F84F9C
:100E8000040070D02078C04DC00749D06868C0F316
:100E90008100012807D06868C0F38100022809D1C9
:100EA0006868C00306D52868800339D560680028C3
:100EB000E7D035E06068B0F5803F0BD010B1B0F5F9
:100EC000A02F11D0286820F480302860286820F4F2
:100ED000802002E0286840F480302860606890B18B
:100EE000FFF752FE06460AE0286840F4802028609A
:100EF000F0E700BFFFF748FE801B642873D828681E
:100F00008003F7D50CE0FFF73FFE064605E000BF83
:100F1000FFF73AFE801B6428F0D828688003F7D4D6
:100F200020789A4E80074FF001094FF0000839D51C
:100F3000686810F00C0F07D06868C0F381000228C1
:100F400009D16868C00306D42868800714D52069D1
:100F5000012808D110E02069B0B1C6F80090FFF771
:100F600013FE074605E00AE1FFF70EFEC01B02284C
:100F7000C4D828688007F7D52868616920F0F80090
:100F800040EAC10028600DE0C6F80080FFF7FCFDD4
:100F9000074604E0FFF7F8FDC01B022823D82868A5
:100FA0008007F7D4207800072CD57948A169D9B1FA
:100FB000C0F80090FFF7E8FD074604E0FFF7E4FD06
:100FC000C01B02280FD8686A8007F7D571484FF414
:100FD000FA510068B0FBF1F0009000BF0098411E8C
:100FE0000091FAD20EE080E0C0F80080FFF7CCFD5F
:100FF000074604E0FFF7C8FDC01B022875D8686AE1
:101000008007F7D42078400760D5E8690027C00042
:1010100008D4E86940F08050E861E869012700F0F1
:10102000805000905C480168C90513D4016883466C
:1010300041F480710160FFF7A7FD824606E000BF22
:10104000FFF7A2FDA0EB0A0064284ED8DBF80000F1
:10105000C005F5D5E06801280AD008B1052813D0ED
:10106000286A20F001002862286A20F0040002E0CB
:10107000286A40F001002862E06841F2883B98B19C
:10108000FFF782FD82460BE0286A40F004002862E8
:10109000EEE700BFFFF778FDA0EB0A0159455AD8EB
:1010A000286A8007F6D50CE0FFF76EFD824605E062
:1010B000FFF76AFDA0EB0A0159454CD8286A800762
:1010C000F6D41FB1E86920F08050E861E06988B388
:1010D0006968C1F38101022944D00228C6F8608002
:1010E00004D0FFF751FD044638E034E0FFF74CFD33
:1010F000074604E0FFF748FDC01B02282BD82868EC
:101100008001F7D4206AB0F5803F05D16868A168F6
:1011100020F4003008436860D4E908010843696896
:1011200021F4741108436860C6F86090FFF72CFD45
:10113000044606E025E000BFFFF726FD001B02285D
:1011400009D828688001F7D51BE000BFFFF71CFD18
:10115000001B022802D90320BDE8F88F286880010F
:10116000F4D40EE00128F7D06868226A00F48031D8
:10117000914204D1616A00F47010884201D00120CC
:10118000EAE70020E8E700000010024000004242C9
:10119000800442420C0000200070004070B5040042
:1011A00009D0606A002540B125616561A56294F8A7
:1011B000510040B10CE0012070BD6068B0F5827F45
:1011C000F4D0E561F2E784F85050204600F040F892
:1011D000022084F851002068016821F0400101607C
:1011E000A088218900F4827001F404410843A18998
:1011F00001F400610843217C01F002010843217DD4
:1012000001F001010843218B01F400710843217FA3
:1012100001F03801084394F8201001F080010843E0
:10122000218D01F40051084321680860A069042160
:1012300001EA1040216848602068C16921F400611A
:10124000C1616565012084F85100002070BD000077
:1012500030B585B000240094019402940394006892
:101260001449884223D11448816941F48051816135
:10127000816901F480510491816941F00401816127
:1012800080690E4D00F004000490A0200090022020
:1012900001900320039069462846FFF77FFB40201A
:1012A000CDE90004694628460294FFF777FB05B0B4
:1012B00030BD000000300140001002400008014035
:1012C00010B5401EB0F1807F01D3012010BD4FF05A
:1012D000E02460610F21601701F047F80020A06151
:1012E00007202061002010BD7047704770B590F84E
:1012F0003C20012A26D0012480F83C40022280F8BC
:101300003D2003685A689D6822F070060A683243DF
:101310005A600D4B02689A4208D0B2F1804F05D056
:101320000A4B9A4202D00A4B9A4204D1496825F0EE
:1013300080031943916080F83D40002180F83C1003
:10134000084670BD022070BD002C01400004004022
:101350000008004010B5040003D094F83D0010B11F
:1013600007E0012010BD002084F83C00204600F07A
:101370001FF8022084F83D00211D206800F098FD30
:10138000012084F8460084F83E0084F83F0084F889
:10139000400084F8410084F8420084F8430084F857
:1013A000440084F8450084F83D00002010BD000092
:1013B00008B5114A01681148914208D1816941F488
:1013C00000618161806900F40060009008BDB1F1A6
:1013D000804FFBD1C16941F00101C161C0690022A8
:1013E00000F00100009011461C20FFF739FCBDE819
:1013F00008401C20FFF726BC002C014000100240D2
:1014000090F83D10012901D001207047022180F899
:101410003D100168CA6842F00102CA6000680B49C9
:10142000884208D0B0F1804F05D00949884202D0E7
:101430000849884204D1816801F00701062903D0D8
:10144000016841F00101016000207047002C01405B
:10145000000400400008004070B5044690F83C00CD
:101460000025012817D0012684F83C60022084F86A
:101470003D002068826822F0770222F47F42826079
:101480000868502838D00DDC20284FD005DC90B3F8
:10149000102811D14AE0022070BD302846D04028E3
:1014A0000AD13BE060282FD070280DD0B0F5805FC6
:1014B00003D0B0F5005F12D0012584F83D60002014
:1014C00084F83C00284670BDCB68D1E90121206832
:1014D00000F02AFD2068816841F0770109E0CB68BF
:1014E000D1E90121206800F01FFD2068816841F4E6
:1014F00080418160E1E719E0CA684968206800F02E
:1015000025FD5021206806E0CA684968206800F07F
:101510002EFD6021206800F011FDCEE7CA68496801
:10152000206800F013FD40212068F4E7226801469E
:101530001046F0E770472DE9F04104460068C668A0
:1015400005694FF00007A90713D5B10711D5F91E9A
:10155000016101202077206880698007204602D041
:10156000FFF7E8FF04E000F07EF8204600F07CF88A
:101570002777680716D5700714D521686FF0040027
:101580000861022020772068806910F4407F20469F
:1015900002D0FFF7CFFF04E000F065F8204600F02E
:1015A00063F82777280715D5300713D521686FF022
:1015B00008000861042020772068C0698007204661
:1015C00002D0FFF7B7FF04E000F04DF8204600F02E
:1015D0004BF82777E80616D5F00614D521686FF08A
:1015E00010000861082020772068C06910F4407F4F
:1015F000204602D0FFF79EFF04E000F034F82046BA
:1016000000F032F82777E80708D0F00706D0216805
:101610006FF001000861204600F028F8280608D580
:10162000300606D521686FF0800008612046FFF77C
:101630005BFE680608D5700606D521686FF040008D
:101640000861204600F01CF8A8060AD5B00608D5A7
:1016500021686FF0200008612046BDE8F041FFF7E7
:1016600044BEBDE8F08170477047000003494968F7
:10167000884201D100F0E0BE704700001C0000204D
:10168000704738B5044690F84200202801D0022067
:1016900038BD51B14AB1012020630020606320466B
:1016A00000F00EFE216B012901D0012038BD216818
:1016B0000A684968009121680C3151E8002F42F016
:1016C000100241E80023002BF5D138BD10B50A4CBB
:1016D000006822681268904205D10A460749A1F5C0
:1016E000947000F0F3FE2068BDE810404FF48C7257
:1016F0000249FFF7C6BF000010000020F0080020DC
:1017000070470000F8B5016804460868CA684B696C
:1017100010F00F0F4FF0000559D003F0010602F44E
:101720009077374365D0C10705D0D10503D5616CEB
:1017300041F001016164410705D5D90703D0616C0F
:1017400041F002016164810705D5D90703D0616CBE
:1017500041F004016164010707D502F02001314323
:1017600003D0616C41F008016164616C00293AD0DA
:10177000800604D5900602D5204600F0E4FC2068DF
:101780004069616CC0F38010090700D460B3204643
:1017900000F0A4FC20684069400621D52068143080
:1017A00050E8001F21F0400140E80012002AF5D166
:1017B000E06BA8B16D494163E06BFEF781FF002843
:1017C00011D0E06B416B01B0BDE8F04008478306E3
:1017D0000FD593060DD52046BDE8F84000F0B3BC08
:1017E0002046FFF78DFFF8BD2046FFF789FF6564AF
:1017F000F8BD266B2023012E7CD1C6067AD5D606ED
:1018000078D508684868009048694FF0020640069D
:1018100040D5E16B086840680004000CE8D0A28D58
:101820008242E5D9E085886920282DD020680C30D7
:1018300050E8001F21F4807140E80012002AF5D121
:101840002068143050E8001F21F0010140E8001228
:10185000002AF5D12068143050E8001F21F0400123
:1018600040E80012002AF5D184F842302563206850
:101870000C3050E8001F21F0100140E80012002A4F
:10188000F5D1E06BFEF7F8FE6663A08DE18D401A9E
:1018900081B22AE0A08DE18D401A81B2E08D00284E
:1018A000A6D00029A4D022680C3252E8000F20F400
:1018B000907042E80007002FF5D12068143050E8FE
:1018C000002F22F0010240E80027002FF5D184F814
:1018D0004230256320680C3050E8002F22F01002BF
:1018E00040E80023002BF5D166632046FFF7EEFEAB
:1018F000F8BDFFE705062BD5150629D594F841005C
:101900002128F5D1A068B0F5805F01D12069B0B180
:10191000206A411C2162216800784860E08C401EEA
:101920000004000CE084E3D12068C16821F080014C
:10193000C1602068C16841F04001C160D8E7206AF9
:101940000088C0F308004860206A801C2062E5E738
:101950004006CDD55006CBD5CA68204622F04002BD
:10196000CA6084F8413000F03BF9C1E7931F0008DA
:1019700070B5040004D094F84100002510B106E0D1
:10198000012070BD84F84050204600F023F8242048
:1019900084F841002068C16821F40051C1602046EC
:1019A00000F032FC2068016921F490410161206857
:1019B000416921F02A0141612068C16841F4005168
:1019C000C1606564202084F8410084F842006563AA
:1019D000002070BD2DE9F04385B0002500950195EC
:1019E00002950395044603685848DFF85CC102215C
:1019F0000322071580264FF0100863454DD18369F7
:101A000043F480438361836903F4804304938369CF
:101A100043F0040383618069DFF8349100F004002F
:101A200004900802CDE90001039269464846FEF79A
:101A3000B5FFCDE90075694648460295FEF7AEFF51
:101A4000454F4448C7E90005C7E902563D617D613D
:101A5000BD613846FD61FEF729FF08B1FEF70AFEB9
:101A6000E7637C623C4F3B4844371438C7E9025671
:101A70003D617D61BD61FD61C7E900083846FEF743
:101A800015FF08B1FEF7F6FDA763002211462520D9
:101A90007C62FFF7E5F8252051E0DFF8C0C0634520
:101AA0004FD1C36943F48023C361C36903F4802326
:101AB0000493836943F0080383618069CDE9007171
:101AC00000F00800CDE90320254F69463846FEF7AF
:101AD00065FFF814CDE90005694638460295FEF722
:101AE0005DFF1D4F1B4888373C38C7E902563D61F2
:101AF0007D61BD61FD61C7E900083846FEF7D6FE8D
:101B000008B1FEF7B7FDA7637C62134F1148CC37CD
:101B10002838C7E90005C7E902563D617D61BD610E
:101B20003846FD61FEF7C2FE08B1FEF7A3FDE7638C
:101B30000022114627207C62FFF792F82720FFF74A
:101B400081F805B0BDE8F083003801400010024084
:101B50000008014058000240B80100200048004041
:101B6000000C01407047704770B5044690F8410082
:101B7000202801D0022070BD49B342B32162A28463
:101B8000E28400206064212384F84130A56B114B6E
:101B9000AB62A56B104BEB62A56B104B2B63A36B79
:101BA0005863256813462A1DA06BFEF7ADFE216819
:101BB0006FF0400008602068143050E8001F41F0CA
:101BC000800140E80012002AF5D1002070BD0120FC
:101BD00070BD000091200008D3200008A31F00085A
:101BE00070477047FEE70000154808B5416941F0AD
:101BF000010141614069002200F00100009011469E
:101C00000C20FFF72DF80C20FFF71CF800221146DE
:101C10000D20FFF725F80D20FFF714F800221146DC
:101C20000E20FFF71DF80E20FFF70CF800221146DA
:101C30000F20FFF715F8BDE808400F20FFF702B8A6
:101C40000010024030B585B000241848009401947B
:101C500002940394816941F020018161816901F05E
:101C600020010491816941F004018161816901F0E1
:101C700004010491816941F00801816180690C4D82
:101C800000F008000490012210212846FEF776FF9C
:101C9000102000900120CDE9010402200390694644
:101CA0002846FEF77BFE05B030BD00000010024064
:101CB00000080140104810B50E4901604FF48271D0
:101CC0004160002102228160C0E903121202C0E9D2
:101CD00005123822C2618022C0E9082181620A21EE
:101CE000C162FFF75BFA002803D0BDE81040FEF7A1
:101CF000C1BC10BD003001404000002010B586B0CE
:101D00000024174800940194029403940494134906
:101D1000059401603F21C0E901144FF6FF71C0E94D
:101D2000031444618461FFF715FB08B1FEF7A2FCC0
:101D30004FF48050009069460948FFF78DFB08B1C9
:101D4000FEF798FC049404A905480594FFF7CEFA21
:101D5000002801D0FEF78EFC06B010BD002C01401B
:101D60009800002010B586B0002416480094019415
:101D70000294039404944FF08041059401603F2144
:101D8000C0E9011441F28831C0E903148461FFF70E
:101D9000E1FA08B1FEF76EFC4FF4805000906946FE
:101DA0000848FFF759FB08B1FEF764FC049404A946
:101DB00004480594FFF79AFA002801D0FEF75AFC70
:101DC00006B010BDE00000200C4810B50A490160C3
:101DD0004FF4E1314160002181600C22C160C0E913
:101DE00004128161C161FFF7C3FD002803D0BDE883
:101DF0001040FEF73FBC10BD003801402801002014
:101E00000C4810B50A4901604FF4E13141600021EE
:101E100081600C22C160C0E904128161C161FFF7D9
:101E2000A7FD002803D0BDE81040FEF723BC10BD7D
:101E30000048004070010020FEE7FEE77047704751
:101E4000FEF7A8BE30B58FB028216846FEF709FB23
:101E500014210AA8FEF705FB022501200490009535
:101E60001020059000244FF46010CDE9084007953C
:101E70006846FFF703F808B172B6FEE70F20CDE918
:101E80000A054FF48060CDE90C4002210AA80E94A7
:101E9000FEF718FF002801D072B6FEE70FB030BD84
:101EA000704700000148FFF746BB0000E00000203B
:101EB000F0B50268194B1A4C1A4D4FF08047984202
:101EC00005D0B84203D0A04201D0A84203D122F0ED
:101ED00070064A683243984205D0B84203D0A04207
:101EE00001D0A84203D122F44074CA6822434C694D
:101EF00022F08002224302608A68C2620A6882621B
:101F0000984201D109690163012141610169C90751
:101F100003D0016921F001010161F0BD002C0140F5
:101F2000000400400008004010B5846842EA032223
:101F300024F47F440A432243826010BD826822F069
:101F400070020A4342F007018160704710B5036ACE
:101F5000046A24F001040462846924F0F00444EA71
:101F6000021423F00A020A438461026210BD10B514
:101F7000036A046A24F010040462846923F0A00355
:101F800024F4704444EA023243EA0111826101629E
:101F900010BD10B5406A0021C185C184FFF7B0FBB8
:101FA00010BD70B5446A2068406994F84110C0F3D0
:101FB000C0100025212904D118B1E584204600F085
:101FC000B4F82068406994F84210C0F380102229C8
:101FD00004D118B1E585204600F080F8606C40F02F
:101FE000100060642046FFF78BFB70BD10B5014602
:101FF000406A096809684FF0000289062ED4C2853C
:1020000001680C3151E8003F23F4807341E800344B
:10201000002CF5D10168143151E8003F23F0010391
:1020200041E80034002CF5D10168143151E8003F3B
:1020300023F0400341E80034002CF5D1202180F842
:102040004210016B012909D101680C3151E8003FB0
:1020500023F0100341E80034002CF5D14263016BFA
:10206000012902D0FFF77EFD10BD818DFFF72EFB09
:1020700010BD10B5406A01214163016B012902D0F6
:10208000FFF771FD10BD818D4908FFF71FFB10BDE3
:1020900010B50146406A09680968890616D400210E
:1020A000C1840168143151E8002F22F0800241E818
:1020B0000023002BF5D101680C3151E8002F42F0CC
:1020C000400241E80023002BF5D110BDFFF788FD49
:1020D00010BD10B5406AFFF784FD10BD01680C31DA
:1020E00051E8002F22F4907241E80023002BF5D133
:1020F0000168143151E8002F22F0010241E8002369
:10210000002BF5D1016B012909D101680C3151E88F
:10211000002F22F0100241E80023002BF5D12021EE
:1021200080F8421000210163704701680C3151E8CA
:10213000002F22F0C00241E80023002BF5D120211E
:1021400080F84110704708B590F84210222901D05C
:10215000022008BD82684FF480539A4201D1016980
:1021600021B1816A9A421BD04AB10AE00268816AB1
:102170005268C2F308020A80816A891C08E0026979
:1021800072B10268526802F07F020A70816A491CCB
:102190008162C18D491E0904090CC18503D01BE071
:1021A00002685268F1E70168CA6822F02002CA603A
:1021B0000168CA6822F48072CA6001684A6922F024
:1021C00001024A61202180F8421000214163026B24
:1021D000012A03D0FFF7C6FC002008BD0163016897
:1021E0000C3151E8002F22F0100241E80023002BAF
:1021F000F5D101680A68D20602D50A6849680091DB
:10220000818DFFF763FAE7E770B50446006801695E
:10221000E26821F44051114301612169A06808433B
:10222000616908432168CA6841F20C639A4302431A
:10223000CA6020684169A26921F44071114341617B
:102240001E492068884202D1FEF7E2FD01E0FEF758
:10225000CFFD00EBC00101EB00126068642180003B
:10226000B2FBF0F3B3FBF1F36FF018067343B2FB6C
:10227000F0F5B2FBF0F605EB8305322303EB051511
:10228000B5FBF1F5B6FBF1F605F0F00505EB06152B
:10229000B2FBF0F6B2FBF0F0B0FBF1F06FF0180219
:1022A000504306EB800003EB0010B0FBF1F0216817
:1022B00000F00F002844886070BD00000038014025
:1022C00038B581620446828500201346606422226C
:1022D00084F84220E56B1B4AAA62E56B1A4AEA625F
:1022E000E56B1A4A2A63E26B50630A462168E06B89
:1022F000091DFEF709FB206801684068009020690D
:1023000048B120680C3050E8001F41F4807140E86B
:102310000012002AF5D12068143050E8001F41F067
:10232000010140E80012002AF5D12068143050E87D
:10233000001F41F0400140E80012002AF5D10020C2
:1023400038BD0000ED1F000873200008A31F00081F
:102350000148FFF7D7B90000280100200148FFF726
:10236000D1B9000070010020FEE70907090E00281E
:1023700004DB00F1E02080F80014704700F00F004B
:1023800000F1E02080F8141D704701E0491EC9B239
:10239000012904D9421812F8012C002AF6D0084667
:1023A00070470A88504080EA0010C0B2120A82EAE0
:1023B000002282EAC00282EA101008807047000002
:1023C00000B58DB034216846FEF74BF8074808A1E8
:1023D00090F9013090F900206846FDF7F9FE3222AD
:1023E00069460748FFF7C0FB0DB000BD1400002090
:1023F0004C582C4C593A25642C25640A00000000E6
:102400007001002010B58168090A012910D1C27835
:10241000084B062A00D3062200211960998000F19A
:1024200010011846FDF784FFBDE81040FFF7C8BF54
:1024300010BD000014000020F0B51D4DADF5157D58
:1024400004ACA86801210A4690F803E090F804C0A3
:10245000477946788378C0798DF800E08DF801C01F
:102460008DF804308DF802708DF803608DF805004A
:1024700000980890BDF80400ADF8240006980127E4
:10248000C0B200F5807006902046062426468DE8EE
:10249000D000084B00F07EF804A94EA800F084FAA2
:1024A00002464EA92868FFF75FFB0DF5157DF0BDCC
:1024B0001C000020080A0020034B1860C3E9011229
:1024C0000846FEF79DBF00001C0000202DE9F74FD5
:1024D000DFF86480002488B01746834608F160095D
:1024E000A24613E0099801AA5B46065D00924546A4
:1024F00041464846324600F003F902280BD0032833
:1025000009D010B10D48FFF77DFF641CBC42E9DB28
:102510000BB0BDE8F08FAA785146521CAA70012278
:1025200085F800A04846EA70FD2EEED10222EA703E
:10253000C17000F009FEE8E7C8020020C8070020CB
:10254000FEF730FBFFF77EFCFFF77CFBFFF74CFB51
:10255000FFF73AFCFFF7D2FBFFF7ACFBFFF702FCFB
:10256000FFF74EFC084A09490948FFF7A5FFFFF7A6
:1025700063FF054CE078401CE0702079401E20711C
:102580000A20FEF7F9F9F5E728000020E000002016
:10259000280100202DE9FF4F8DB091460446DDE96A
:1025A0001A02197B1D46C1F340063EB9296929B1BB
:1025B0000978C90702D001270D2101E0002739461B
:1025C0008B464FF00A0A04F1100826B1FE21A170D3
:1025D0004FF0060A05E0FD20A07011464046FFF7C7
:1025E000D4FEE0700E98E07184F80890002020710D
:1025F0000FB1012121716071A879A071A879401CE7
:10260000A871A0788DF80C00E0788DF80D006EB1FF
:10261000A0798DF80E00E0798DF80F00207A8DF802
:1026200010002089000A8DF811001AE020798DF839
:102630000E0060798DF80F00A0798DF81000E07918
:102640008DF81100207A8DF812002089000A8DF88B
:102650001300A068000C8DF81400A068000E8DF81F
:102660001500AAF1010086B24FF6FF700DF10D09B9
:10267000ADF82C0005E000BF19F8010B0BA9FFF71E
:1026800090FE761EB6B2F7D2BDF82C00ADF8180059
:1026900006A80290E678C14605E000BF19F8010BD4
:1026A0000299FFF77EFE761EB6B2F7D206A91C98F5
:1026B000FFF777FEE278BDF8180002F80800BDF8D1
:1026C0001800E278010A04F111001154BDF8180055
:1026D00020806FB1E078CDF8008000EB0801CDE9F3
:1026E0000101534603AA04F58D71286900F0EAFB45
:1026F000E1780BF10200514411B00844BDE8F08FBD
:102700002DE9F05F4FF0000A0A9F1646054681F852
:1027100000A0CA78022098460C4605F1100B4FF035
:102720000109102A21D2DFE802F008082133444AC7
:1027300051585F72808C9ABFBFE7FD2E02D0FE2EEB
:1027400008D00CE1E07085F803A0AE70207B20F08B
:10275000010006E0E07085F803A0AE70207B40F039
:1027600001002073284600F0EFFCEDE0EE7084F8E5
:1027700004A03146284600F0EBFC207BC00705D0C2
:1027800085F804A085F805A005204CE003204AE068
:102790002E71700807D0A078401CA07084F800A0AB
:1027A00084F80390DBE03146284600F0D1FC042099
:1027B00039E06E713146284600F0CAFCE4E7AE719C
:1027C0003146284600F0C4FC06202CE0EE7131466C
:1027D000284600F0BDFC072025E02E723146284631
:1027E00000F0B6FC08201EE0A868314666F31F2002
:1027F000A860284600F0ACFC207BC00705D0E87834
:1028000008B10B200FE00C200DE009200BE0A868B8
:10281000010A41EA062161F31F20A86031462846DB
:1028200000F096FC0A20E0708EE0A868010A41EAF8
:10283000064161F31F20A8603146284600F088FC5D
:10284000DDE72079411C217100F80B6031462846F4
:1028500000F07EFC2079E9788842D4D074E0A86842
:102860005146020A4F480368934202D0894600212C
:1028700001E001798146284600F06AFC2878B042E0
:1028800001D00E2000E00D20E07085F81861B9F14C
:10289000000F59D0207999F80610884254D2091AAD
:1028A0005844FDF7BCFD4FE00E2A03D02988B6EB53
:1028B000112F01D0207001E084F8009085F8196193
:1028C0002879C00709D00F20E0700D2060732078B0
:1028D000022844D084F800A041E0206950B3026B84
:1028E00022B1A868010A2046904718BB2078022828
:1028F00020D0032020701DE0607BC0F10D00284433
:1029000080F81A61607B401E10F0FF0060731BD1DD
:10291000D4E904012A4600F03FFB48B92069026B64
:10292000002AE6D0A868010A204690470028E0D097
:1029300084F8009084F80390B8F1000004D04FF4BC
:1029400094722946FDF739FD2078012807D1A8792E
:102950006071208908B9A4F80AA0401C2081B8F150
:10296000000F02D0E97888F8031067B1E078F870BA
:10297000207938716079401C787120893881A0787D
:102980007881207B387384F802A02078022806D151
:10299000B8F1000F03D0B5F81811A8F8001020788E
:1029A000BDE8F09F983200082DE9F0470C46CE783C
:1029B0000546897804F110008046FE2929D0314669
:1029C000FFF7E3FC0646A07828706E702079A870A7
:1029D0006079E870A0792871E0796871207AA8712F
:1029E00020894FF00909000AE871A0683246000CFE
:1029F0002872A0684146000E687205F10A00FDF7D2
:102A000097FC0935A8192179401CC90718D00D2752
:102A100017E029706E70A079A870E079E870207ACC
:102A2000287120890027000A68714FF00509E278B3
:102A30004146A81DFDF77CFCE0782844801D00E09D
:102A40000027217801702188090A41702FB13A4688
:102A500004F58D71801CFDF76BFC09EB0600384412
:102A6000C01CBDE8F08700002DE9F04FC8B08368B6
:102A700088464793C16846910469459442694492E7
:102A8000964682694392C5694295A946056A419571
:102A9000466A4096B34600264FEA0D0758F826C00E
:102AA00047F826C0761C102EF8DB102607EB860AA6
:102AB0005AF8087C4FEA774C8CEAF74C8CEA972C52
:102AC0005AF83C7C4FEAF71888EAB74888EAD707F3
:102AD000BC445AF81C8C5AF8407C4744BC444DF81E
:102AE00026C0761C6F46402EE0DB00264FEAB21768
:102AF00087EAF22787EA726C02EA090725EA0208E8
:102B000087EA0807BC44204F57F8268008EB0B07DC
:102B1000BC445DF82670AB460CEB070A4FEAB307DE
:102B200087EA733787EAB35C81EA04074D4601EA16
:102B3000040891461F400EEB0A02A64687EA0807E2
:102B40000C46BC441946761C0AEB0C03402ECDDB28
:102B5000479E33448360469B1944C1604599214494
:102B600001614499714441614399114481614299E1
:102B70004944C161419929440162409959444162E3
:102B800048B0BDE8F08F0000983100082DE9F04F03
:102B9000C8B0836888464793C168469104694594E4
:102BA00042694492964682694392C5694295A94614
:102BB000056A4195466A4096B34600264FEA0D07DE
:102BC00058F826C047F826C0761C102EF8DB1026D1
:102BD00007EB860A5AF8087C4FEA774C8CEAF74CE8
:102BE0008CEA972C5AF83C7C4FEAF71888EAB748E9
:102BF00088EAD707BC445AF81C8C5AF8407C4744F2
:102C0000BC444DF826C0761C6F46402EE0DB002603
:102C10004FEAB21787EAF22787EA726C02EA0907DD
:102C200025EA020887EA0807BC44204F57F82680A7
:102C300008EB0B07BC445DF82670AB460CEB070AAB
:102C40004FEAB30787EA733787EAB35C81EA040780
:102C50004D4601EA040891461F400EEB0A02A646C3
:102C600087EA08070C46BC441946761C0AEB0C039D
:102C7000402ECDDB479E33448360469B1944C160A0
:102C8000459921440161449971444161439911443A
:102C9000816142994944C161419929440162409945
:102CA0005944416248B0BDE8F08F0000A4320008EA
:102CB0002DE9F0410446008892B0C0F3C500C0F190
:102CC000770000F03F0680200D468DF8000004F1EB
:102CD00008074721E8460DF10100761CFDF79FFB30
:102CE00008EB06002178C171218806F10802090A63
:102CF00081712168090C41712168090E01712179E6
:102D0000C170A188090A81706168090C417060680E
:102D1000010E08F806106946204600F055F8F878CC
:102D20002870B87868707878A8703878E870F87982
:102D30002871B879687112B0BDE8F0812DE9F041D1
:102D40000446008892B0C0F3C500C0F1770000F0DF
:102D50003F0680200D468DF8000004F1080747214A
:102D6000E8460DF10100761CFDF759FB08EB060063
:102D70002178C171218806F10802090A8171216850
:102D8000090C41712168090E01712179C170A18876
:102D9000090A81706168090C41706068010E08F8C9
:102DA00006106946204600F04EF8F8782870B8788A
:102DB00068707878A8703878E870F8792871B879F0
:102DC000687112B0BDE8F0812DE9F0410446006859
:102DD0001546884600EBC50190B02160814202D2C1
:102DE0006168491C6160C0F3C50727E0C7F1400670
:102DF000B54200D22E46E019324641462830FDF752
:102E000097FA3744AD1BB044402F17D104F1280383
:102E100000206E4603EB800106EB8002CF7817702E
:102E20008F7857704F7897700978401CD1701028B0
:102E3000F0DB31462046FFF717FE0027002DD5D1E5
:102E400010B0BDE8F0812DE9F04104460068154658
:102E5000884600EBC50190B02160814202D26168D2
:102E6000491C6160C0F3C50727E0C7F14006B542C1
:102E700000D22E46E019324641462830FDF758FA76
:102E80003744AD1BB044402F17D104F12803002074
:102E90006E4603EB800106EB8002CF7817708F78C7
:102EA00057704F7897700978401CD1701028F0DB6C
:102EB00031462046FFF76AFE0027002DD5D110B01D
:102EC000BDE8F0812DE9F0439DB09846DDE9256528
:102ED000249F91460C46E0B30178C90749D0417858
:102EE0002170D0E90212CDE91A12C4F80110BDF820
:102EF0006C10A4F80510D0E90212491C42F100023E
:102F0000C0E902120021009101911B4902911B4965
:102F100003911B4904911B4905911B4906911B49CB
:102F200007911B4908911B49099100F110012022CA
:102F30006846FFF788FF424649466846FFF783FF29
:102F4000324639466846FFF77EFF02222946684628
:102F500000E00EE0FFF777FF072221466846FFF703
:102F600072FFE11D6846FFF7E9FE0D201DB0BDE8C8
:102F7000F0830020FAE7000067E6096A85AE67BBC8
:102F800072F36E3C3AF54FA57F520E518C68059B4B
:102F9000ABD9831F19CDE05B2DE9F043A1B01446F6
:102FA0000F46050040D00020009001905D4802903F
:102FB0005D4803905D4804905D4805905D4806902B
:102FC0005D4807905D4808905D48099004F102084B
:102FD00004F58D7604F22119202205F110016846CE
:102FE000FFF7F2FE0A2241466846FFF7EDFEE2785F
:102FF00004F110016846FFF7E7FE022204F58C7128
:103000006846FFF7E1FE072231466846FFF7DCFE1F
:103010001EA96846FFF74CFE062249461EA8FDF78A
:103020005BF928B1022062E0012021B0BDE8F08305
:1030300032780020CDE91A00D6F801001A90B6F8CF
:103040000500ADF86C0017B10020398816E00320A8
:103050004DE000BF00EBC0033B4494F807C093F879
:103060000380C44508D194F808C093F80480C4458F
:1030700002D19B78934203D0401C80B28142E9D8B0
:10308000814220D1102901D3042030E0DDE91A1358
:10309000DFF8B0C011EB0C0843F10001D5E9023CA8
:1030A000B8EB030371EB0C0101D205201FE000EB2C
:1030B000C0013944E379CB70237A0B718A70398867
:1030C000491C398017E00021CDE91C1100EBC0013B
:1030D000394451F8052F1C9289881446DDE91A23DA
:1030E000ADF874101D99A21A994104D3062085F8F1
:1030F0003400002099E700EBC000C11956F8010F19
:1031000041F8050FB0888880D5E90232DDE91A015F
:103110001B1A8A4101D2C5E90201012085F8340059
:1031200082E7000067E6096A85AE67BB72F36E3C12
:103130003AF54FA57F520E518C68059BABD9831F82
:1031400019CDE05B808D5B004FF6FF710180704709
:103150000288514081EA0111C9B2120A82EA0122B1
:1031600082EAC10282EA1111018070470102020362
:103170000405060708090A0B0C0D0E0F10100000BD
:103180000000000000000102030406070809000017
:103190000000010203040000982F8A429144377115
:1031A000CFFBC0B5A5DBB5E95BC25639F111F159CA
:1031B000A4823F92D55E1CAB98AA07D8015B83120C
:1031C000BE853124C37D0C55745DBE72FEB1DE80B8
:1031D000A706DC9B74F19BC1C1699BE48647BEEFE7
:1031E000C69DC10FCCA10C246F2CE92DAA84744A72
:1031F000DCA9B05CDA88F97652513E986DC631A8E8
:10320000C82703B0C77F59BFF30BE0C64791A7D5C6
:103210005163CA0667292914850AB72738211B2E4E
:10322000FC6D2C4D130D385354730A65BB0A6A7636
:103230002EC9C281852C7292A1E8BFA24B661AA842
:10324000708B4BC2A3516CC719E892D1240699D652
:1032500085350EF470A06A1016C1A419086C371ECB
:103260004C774827B5BCB034B30C1C394AAAD84EA9
:103270004FCA9C5BF36F2E68EE828F746F63A578E4
:103280001478C8840802C78CFAFFBE90EB6C50A477
:10329000F7A3F9BEF27871C601000000010606002E
:1032A00000000000982F8A4291443771CFFBC0B5CF
:1032B000A5DBB5E95BC25639F111F159A4823F9201
:1032C000D55E1CAB98AA07D8015B8312BE8531245A
:1032D000C37D0C55745DBE72FEB1DE80A706DC9B1B
:1032E00074F19BC1C1699BE48647BEEFC69DC10FC7
:1032F000CCA10C246F2CE92DAA84744ADCA9B05C03
:10330000DA88F97652513E986DC631A8C82703B0C5
:10331000C77F59BFF30BE0C64791A7D55163CA06D3
:1033200067292914850AB72738211B2EFC6D2C4DDF
:10333000130D385354730A65BB0A6A762EC9C281CD
:10334000852C7292A1E8BFA24B661AA8708B4BC263
:10335000A3516CC719E892D1240699D685350EF48D
:1033600070A06A1016C1A419086C371E4C77482744
:10337000B5BCB034B30C1C394AAAD84E4FCA9C5BBA
:10338000F36F2E68EE828F746F63A5781478C8840B
:103390000802C78CFAFFBE90EB6C50A4F7A3F9BEED
:1033A000F27871C6C4330008000000202800000035
:1033B00028010008EC33000828000020A0100000BD
:1033C000440100080100000010000000000000009F
:1033D00000127A0000000000000000000000000061
:0C33E000000000000000000000000000E1
:04000005080000ED02
:00000001FF
